{
  "contractName": "PrivateTokenSale",
  "abi": [
    {
      "inputs": [],
      "stateMutability": "payable",
      "type": "constructor"
    },
    {
      "inputs": [
        {
          "internalType": "uint256",
          "name": "",
          "type": "uint256"
        }
      ],
      "name": "registrations",
      "outputs": [
        {
          "internalType": "uint256",
          "name": "value",
          "type": "uint256"
        },
        {
          "internalType": "address",
          "name": "walletAddress",
          "type": "address"
        }
      ],
      "stateMutability": "view",
      "type": "function"
    },
    {
      "inputs": [],
      "name": "depositFunds",
      "outputs": [],
      "stateMutability": "payable",
      "type": "function"
    },
    {
      "inputs": [],
      "name": "withdrawFunds",
      "outputs": [],
      "stateMutability": "nonpayable",
      "type": "function"
    },
    {
      "inputs": [],
      "name": "getBalance",
      "outputs": [
        {
          "internalType": "uint256",
          "name": "",
          "type": "uint256"
        }
      ],
      "stateMutability": "view",
      "type": "function"
    },
    {
      "inputs": [],
      "name": "totalRegistration",
      "outputs": [
        {
          "internalType": "uint256",
          "name": "",
          "type": "uint256"
        }
      ],
      "stateMutability": "view",
      "type": "function"
    }
  ],
  "bytecode": "0x6080604052336000806101000a81548173ffffffffffffffffffffffffffffffffffffffff021916908373ffffffffffffffffffffffffffffffffffffffff16021790555060006001819055506104928061005b6000396000f3fe60806040526004361061004a5760003560e01c806312065fe01461004f57806324600fc31461007a5780637ad20c7614610091578063e2c41dbc146100bc578063f4ddb5be146100c6575b600080fd5b34801561005b57600080fd5b50610064610148565b6040518082815260200191505060405180910390f35b34801561008657600080fd5b5061008f6101a9565b005b34801561009d57600080fd5b506100a6610272565b6040518082815260200191505060405180910390f35b6100c46102d8565b005b3480156100d257600080fd5b506100ff600480360360208110156100e957600080fd5b810190808035906020019092919050505061040b565b604051808381526020018273ffffffffffffffffffffffffffffffffffffffff1673ffffffffffffffffffffffffffffffffffffffff1681526020019250505060405180910390f35b60008060009054906101000a900473ffffffffffffffffffffffffffffffffffffffff1673ffffffffffffffffffffffffffffffffffffffff163373ffffffffffffffffffffffffffffffffffffffff16146101a357600080fd5b47905090565b6000809054906101000a900473ffffffffffffffffffffffffffffffffffffffff1673ffffffffffffffffffffffffffffffffffffffff163373ffffffffffffffffffffffffffffffffffffffff161461020257600080fd5b60004790506000809054906101000a900473ffffffffffffffffffffffffffffffffffffffff1673ffffffffffffffffffffffffffffffffffffffff166108fc829081150290604051600060405180830381858888f1935050505015801561026e573d6000803e3d6000fd5b5050565b60008060009054906101000a900473ffffffffffffffffffffffffffffffffffffffff1673ffffffffffffffffffffffffffffffffffffffff163373ffffffffffffffffffffffffffffffffffffffff16146102cd57600080fd5b600280549050905090565b670214e8348c4f00003411610355576040517f08c379a000000000000000000000000000000000000000000000000000000000815260040180806020018281038252601d8152602001807f43616e6e6f742062757920666f72206c657373207468616e203130302400000081525060200191505060405180910390fd5b600260405180604001604052803481526020013373ffffffffffffffffffffffffffffffffffffffff1681525090806001815401808255809150506001900390600052602060002090600202016000909190919091506000820151816000015560208201518160010160006101000a81548173ffffffffffffffffffffffffffffffffffffffff021916908373ffffffffffffffffffffffffffffffffffffffff16021790555050503460015401600181905550565b6002818154811061041857fe5b90600052602060002090600202016000915090508060000154908060010160009054906101000a900473ffffffffffffffffffffffffffffffffffffffff1690508256fea26469706673582212204a966fae55a6e8bf92498886770d6b947f81d779d81f3326cf29bcb01165769764736f6c63430006020033",
  "source": "pragma solidity ^0.6.2;\n\ncontract PrivateTokenSale {\n    \n    struct SaleRegistration{\n        uint value;\n        address walletAddress;\n    }\n   \n    address owner;\n    uint balance;\n    \n    SaleRegistration[] public registrations;\n    \n    constructor() public payable {\n        owner = msg.sender;\n        balance = 0;\n    }\n    \n    modifier onlyOwner() {\n        require(msg.sender == owner);\n        _;\n    }\n    \n    function depositFunds() public payable {\n        require(msg.value > 0.15e18, \"Cannot buy for less than 100$\");\n        registrations.push(SaleRegistration(msg.value, msg.sender));\n        balance = balance+ msg.value;\n    }\n    \n    function withdrawFunds() public onlyOwner{\n        uint256 contractBalance = address(this).balance;\n        payable(owner).transfer(contractBalance);\n    }\n    \n    function getBalance() public onlyOwner view returns(uint) {\n        return address(this).balance;\n    }\n    \n    function totalRegistration() public onlyOwner view returns(uint) {\n        return registrations.length;\n    }\n    \n    \n}\n",
  "sourcePath": "/Users/hendobox/Desktop/THE GRIND/Blockchain Dev/gitrepo/QLIP-App/contracts/PrivateTokenSale.sol",
  "compiler": {
    "name": "solc",
    "version": "0.6.2+commit.bacdbe57.Emscripten.clang"
  },
  "schemaVersion": "3.3.3",
  "updatedAt": "2021-05-08T13:04:49.615Z",
  "devdoc": {
    "methods": {}
  },
  "userdoc": {
    "methods": {}
  }
}